:100000000C94D4000C94FC000C94FC000C94FC00A8
:100010000C94FC000C94FC000C94FC000C94FC0070
:100020000C94FC000C94FC000C94B2040C9421057C
:100030000C94FC000C94FC000C94FC000C94FC0050
:100040000C94FC000C94FC000C94FC000C94FC0040
:100050000C94FC000C94FC000C94FC000C945307D2
:100060000C94FC000C94FC000C94FC000C94FC0020
:100070000C94FC000C94FC000C94FC000C94FC0010
:100080000C94FC000C94FC000C94FC000C94FC0000
:100090000C94FC000C94FC000C94FC000C94FC00F0
:1000A0000C94FC000C94FC000C94FC00000000027A
:1000B00000090F0000030401000C00000000000014
:1000C0000000000000000000000000080B00020219
:1000D00002000009040000010202000005240010D3
:1000E000010524010101042402060524060001077C
:1000F00005810310004009040100020A0000000706
:1001000005020240000007058302400000040309C5
:100110000412010002EF0201404123368000010178
:1001200002030141726475696E6F204C4C430041BB
:10013000726475696E6F204C656F6E6172646F00DA
:100140000A0B0C0D0E0F0001020304050000000055
:10015000250028002B002E003100000000002400A4
:1001600027002A002D0030000404040404030405C1
:100170000202020204030202020206060606060644
:10018000040402020204040408020110408040102A
:1001900020408040800802040180402010020110AD
:1001A0008010204040209D0711241FBECFEFDAE0D1
:1001B000DEBFCDBF21E0AEE2B1E001C01D92AF3B9A
:1001C000B207E1F711E0A0E0B1E0E6E4F4E102C03B
:1001D00005900D92AE32B107D9F710E0C4EDD0E032
:1001E00004C02197FE010E94120AC33DD107C9F73E
:1001F0000E94D9070C94210A0C94000090E0FC01A5
:10020000E957FE4F249188599E4FFC018491882321
:1002100099F090E0880F991FFC01E65AFE4FA591D6
:10022000B491FC01E45BFE4F859194918FB7F894F3
:10023000EC91E22BEC938FBF0895FC0180914D016E
:10024000882311F13FB7F89482E08093E900209170
:10025000F200822F90E01816190614F481E090E065
:10026000882339F0289844E640934C014091F100EE
:100270004083222339F02091F200211103C02BE6A4
:100280002093E8003FBF08958FEF9FEF08952FB7A9
:10029000F89483E08093E9009091E800892F8072C0
:1002A00095FF04C09091F20080E4891B2FBF089550
:1002B0008091440181110DC082E08093400184E06F
:1002C00080934101109243011092420181E080939A
:1002D000440180E491E008954091390150913A0140
:1002E000209137013091380142175307B4F49091AF
:1002F000E8009570E1F39091E80092FD19C08093B9
:10030000F1008091390190913A0101968F739927FC
:10031000892B19F48EEF8093E80080913901909138
:100320003A01019690933A018093390181E0089552
:1003300080E00895EF92FF920F931F93CF93DF9386
:10034000F82E192FE62E042F81E0860F880F0E94C9
:100350006C0183E00E946C01CF2DD12FEC0EFD2E9D
:10036000F11CCE15DF05B9F007FF13C0FE01849123
:100370000E946C01182F80E00E946C01812321965D
:100380008111EFCFDF91CF911F910F91FF90EF90EF
:1003900008958881EDCF81E0F5CFDF92EF92FF9253
:1003A0000F931F93CF93DF93D82E8A01EB017B012C
:1003B000E40EF51ECE15DF0559F0D7FE12C0FE0182
:1003C00084910E946C0121968111F4CF0FEF1FEFF1
:1003D000C801DF91CF911F910F91FF90EF90DF90B7
:1003E00008958881EECF0F931F93CF93DF931F92D1
:1003F000CDB7DEB782E0898342E450E06BEC70E079
:1004000080E80E94CD010E945801DC0112960D91F6
:100410001C910115110589F0D801ED91FC91028024
:10042000F381E02DBE016F5F7F4FC801099597FDF5
:1004300004C0F80100851185ECCF89810F90DF9110
:10044000CF911F910F910895615030F02091F100EC
:10045000FC0120830196F8CF289884E680934C0114
:100460000895CF93DF931F92CDB7DEB76983DC0188
:10047000ED91FC910280F381E02D41E050E0BE015E
:100480006F5F7F4F09950F90DF91CF91089583E0C3
:100490008093E9008091F200882319F08AE3809329
:1004A000E80008950E94470190E00895CF93DF93FC
:1004B0001F92CDB7DEB7FC018485958597FD08C0F6
:1004C0002FEF3FEF358724870F90DF91CF9108956D
:1004D000CE0101960E941D01019719F4898190E0D7
:1004E000F3CF8FEF9FEFF0CF0F931F93CF93DF9357
:1004F0001F92CDB7DEB78C01FC018485958597FFEF
:100500000BC0CE0101960E941D01019771F48981F3
:1005100090E0F80195878487F801848595850F9090
:10052000DF91CF911F910F9108958FEF9FEFF1CF42
:10053000FC018485958597FD0BC09FB7F89482E0F8
:100540008093E9008091F2009FBF90E001960895AA
:100550009FB7F89482E08093E9008091F2009FBFFA
:1005600090E00895282F30E0F901E455FF4F949171
:10057000F901E957FE4F849128593E4FF901249122
:10058000222309F430C09923E9F091509F30D0F430
:10059000E92FF0E0E253FD4F0C94120AFC02000335
:1005A000DD02F402F802E202E202E20203030903BE
:1005B0000D0311031703E2021B03909180009F7744
:1005C00090938000E22FF0E0EE0FFF1FE45BFE4F00
:1005D000A591B4919FB7F894EC91611132C08095C8
:1005E0008E238C939FBF0895909180009F7DE8CFCC
:1005F00090918000977FE4CF94B59F7794BDE2CF30
:1006000094B59F7DFBCF909190009F779093900041
:10061000D9CF909190009F7DF9CF90919000977FD6
:10062000F5CF9091C0009F779093C000CBCF909171
:10063000C0009F7DF9CF9091C200977F9093C20038
:10064000C1CF8E2BCECF682F8091A3010E94B20222
:100650008091BB019091BC018230910538F0880FE8
:10066000991F880F991F05970197F1F7089581E069
:100670000C9423033FB7F894809133019091340197
:10068000A0913501B091360126B5A89B05C02F3F3A
:1006900019F00196A11DB11D3FBFBA2FA92F982FA8
:1006A0008827BC01CD01620F711D811D911D42E0A3
:1006B000660F771F881F991F4A95D1F708958F926B
:1006C0009F92AF92BF92CF92DF92EF92FF924B0137
:1006D0005C010E943A036B017C010E943A036C1991
:1006E0007D098E099F09683E734081059105A8F335
:1006F00021E0821A9108A108B10888EEC80E83E0B3
:10070000D81EE11CF11C81149104A104B10429F745
:10071000FF90EF90DF90CF90BF90AF909F908F9021
:1007200008958F929F92AF92BF92CF92DF92EF92F5
:10073000FF920F931F93CF93DF936C017B018A018C
:1007400080910B01882309F45CC080914D018823BE
:1007500009F457C080913D0180FF05C08091E00001
:1007600082608093E000E801B12C8AEFA82E93E02C
:10077000892E2AE3922E209711F4BB20D9F10E94F2
:10078000470181110AC0AA94AA20D9F161E070E062
:1007900080E090E00E945F03EECF8C171D0611F001
:1007A0000CF08C2F9FB7F8948092E9002091E8001C
:1007B00025FD02C09FBFDFCF282F30E0C21BD30B27
:1007C000F701815020F041914093F100FACFE20E01
:1007D000F31EBB2021F09092E800B12CEBCF80916A
:1007E000E80085FDE7CF9092E800BB24B394209702
:1007F00009F3F3CF5D9884E680933C01101611064F
:100800003CF081E090E0F6019383828310E000E009
:10081000C801DF91CF911F910F91FF90EF90DF9072
:10082000CF90BF90AF909F908F9008958EBD0000A5
:100830000DB407FEFDCF8EB508950F931F93009161
:10084000A5011091A6012091A7013091A80140E0D7
:1008500052E16AE770E080E00417150726073707C2
:1008600040F476956795579547958F5F8630A1F749
:1008700087E0982F906A9695809581709CBD8DBD7C
:1008800080E01F910F910C942303CF93C82F0E94F7
:100890001D048C2F80620E9416048093A901CF91C1
:1008A0000C943703CF93C82F0E941D048C2F0E94F5
:1008B00016048093A9018FEF0E941604C82F0E948E
:1008C00037038C2FCF910895FF920F931F93CF93EF
:1008D000DF93C82FF62E072F142F0E941D048C2F94
:1008E00080620E9416048093A901CF2DD02F115051
:1008F00020F089910E941604FACFDF91CF911F91C9
:100900000F91FF900C9437030E941D0480E50E9414
:1009100016048093A90183E70E9416040C94370300
:10092000CF93DF93D82FC62F0E941D048D2F806296
:100930000E9416048093A9018C2F0E941604DF9157
:10094000CF910C9437036091B00161FD0AC06260E1
:100950006093B00180E00E9490048BE19EE40197D7
:10096000F1F708951F920F920FB60F9211248F93F3
:100970009F938091E1009091E100937F9093E1003B
:1009800083FF0FC01092E90091E09093EB0010926A
:10099000EC0092E39093ED0010924D0198E090935B
:1009A000F00082FF22C093E09093E9009091F20062
:1009B000992319F09AE39093E80090913C019923D0
:1009C00041F090913C01915090933C01911101C0F4
:1009D0005D9A90914C01992341F090914C01915076
:1009E00090934C01911101C0289A84FF18C0809106
:1009F000E2008E7E81608093E2008091E1008F7E34
:100A00008093E10080913D018E7E806180933D0165
:100A10009F918F910F900FBE0F901F90189580FFA0
:100A2000F7CF8091E2008E7E80618093E20080911A
:100A3000E1008E7E8093E10080913D018E7E816099
:100A4000E5CF1F920F920FB60F921124CF92DF9233
:100A5000EF92FF920F931F932F933F934F935F93C8
:100A60006F937F938F939F93AF93BF93EF93FF9376
:100A7000CF93DF93CDB7DEB76C97DEBFCDBF1092BB
:100A8000E9008091E80083FF25C068E0CE0145962B
:100A90000E94240282EF8093E8008D8987FF39C08D
:100AA0009091E80090FFFCCF982F907609F034C128
:100AB0009E894F89588D2F89F88C911131C08038CB
:100AC00061F580913E018093F1001092F1008EEF6C
:100AD0008093E8006C960FB6F894DEBF0FBECDBFD2
:100AE000DF91CF91FF91EF91BF91AF919F918F9146
:100AF0007F916F915F914F913F912F911F910F9136
:100B0000FF90EF90DF90CF900F900FBE0F901F904F
:100B100018959EEF9093E800C7CF1092F100D5CFC3
:100B2000913059F48111D3CF4130510581F6809134
:100B30003E018D7F80933E01CACF933049F48111ED
:100B4000C6CF4130510519F680913E018260F2CF47
:100B5000953041F48091E80080FFFCCF206820931D
:100B6000E300B5CF963009F0A9C00B8D1C8D22E0B3
:100B70001092E90010923A0110923901F2122EC03F
:100B800010923801109237010E94F3011F8299E000
:100B90009983FA8291E09E8390EA98879AEF9987E9
:100BA0002091390130913A01275F3F4F3C832B83DD
:100BB0008D831092E90010923A011092390110933E
:100BC00038010093370149E050E0BE016F5F7F4F6D
:100BD00080E00E94CD010E94F30179CF109338018B
:100BE000009337010E945801DC0112960D911C916F
:100BF0000115110509F451C1D801ED91FC91048052
:100C0000F581E02DBE016B5E7F4FC801099500970D
:100C100009F03EC1F80100851185EACFF3E0FF122B
:100C20000EC08F89882309F440C0823061F440E807
:100C300060E18FE291E00E949A01811148CF81E248
:100C40008093EB0047CF813029F440E86BE083E2EA
:100C500091E0F1CF833099F70E945801DC011296A0
:100C6000ED90FC908E010F5F1F4F6801E114F104BD
:100C700079F0D701ED91FC910680F781E02DB80164
:100C8000C7010995080F111DF701E084F184EECF2B
:100C9000D8011C92F60101900020E9F73197BF01BD
:100CA0006C197D0940E0C601C6CF6DE071E0FB0123
:100CB000449150E080E80E94CD0109CF973009F4BB
:100CC000BECF983021F481E08093F10000CF9930BD
:100CD00009F0FDCE837009F0B2CFEDE0F1E081E0E4
:100CE00031E096E32191222371F08093E900309363
:100CF000EB00DF0111972C912093EC009093ED0015
:100D00008F5F873079F78EE78093EA001092EA00D0
:100D10008F8980934D01DBCE8B8D9C8D1092E900E5
:100D200010923A0110923901909338018093370163
:100D3000898D811192C08E899D89913A49F48132C1
:100D400009F07DCF47E050E064E071E080E0B3CF90
:100D5000913209F074CF833269F48F89988DB0E0B5
:100D6000A0E08093000190930101A0930201B09351
:100D70000301ADCE803269F48091E80082FFFCCFA0
:100D800067E084E091E00E9424028BEF8093E8000A
:100D90009ECE823209F09BCE8F8980930B01EEEFBD
:100DA000FFE7859194918B3F9C4D51F1E0E0F8E095
:100DB0008091040190910501A0910601B091070175
:100DC000803B9440A105B105F1F480910B0180FDB9
:100DD0001AC0EE3F8AE0F80789F587E797E7918325
:100DE00080838091600080933B0188E19BE00FB697
:100DF000F894A895809360000FBE9093600067CE32
:100E0000EEEFFAE0D5CF808191818737974709F0DF
:100E10005ECEA8958091600088618093600080918B
:100E20003B0180936000EE3F2AE0F20789F0809159
:100E3000FE0A9091FF0A9183808349CE808191813F
:100E40008737980751F29093FF0A8093FE0AC5CF27
:100E50001092FF0A1092FE0A3ACE0E945801DC015D
:100E600012960D911C910115110509F4E8CED801D7
:100E7000ED91FC910190F081E02DBE016B5E7F4F02
:100E8000C8010995811123CEF80100851185EBCFAA
:100E9000181619060CF41BCED2CEF1E0FF12BECE0E
:100EA00061E171E004CF1F920F920FB60F921124EF
:100EB0002F933F938F939F93AF93BF9380912F0175
:100EC00090913001A0913101B091320130912E0109
:100ED00023E0230F2D3758F50196A11DB11D209356
:100EE0002E0180932F0190933001A0933101B09394
:100EF00032018091330190913401A0913501B0917C
:100F000036010196A11DB11D8093330190933401E8
:100F1000A0933501B0933601BF91AF919F918F910E
:100F20003F912F910F900FBE0F901F90189526E8BC
:100F3000230F0296A11DB11DD2CFEEE4F1E0138282
:100F4000128288EE93E0A0E0B0E084839583A683CC
:100F5000B7838DE191E0918380838FEF9FEF958739
:100F60008487EFE9F1E08BE090E09383828381E175
:100F700090E09583848380E896E9A8E9B0E08683D1
:100F80009783A087B18780E28387128A138A85E0DE
:100F9000858B81E0868B85E090E0A0E0B0E0848FD7
:100FA000958FA68FB78F8EE991E091838083148609
:100FB0000895CF93DF93CDB7DEB7A0970FB6F8941F
:100FC000DEBF0FBECDBF789484B5826084BD84B58A
:100FD000816084BD85B5826085BD85B5816085BD34
:100FE00080916E00816080936E00109281008091EC
:100FF0008100826080938100809181008160809374
:1010000081008091800081608093800080919100B8
:101010008260809391008091910081608093910023
:10102000809190008160809390008091C1008460E5
:101030008093C1008091C10082608093C100809143
:10104000C10081608093C1008091C3008160809362
:10105000C3008091C00082608093C0008091C20074
:1010600081608093C20080917A00846080937A00CE
:1010700080917A00826080937A0080917A0081600A
:1010800080937A0080917A00806880937A00109231
:101090004D0110923E0110923D018091D700816078
:1010A0008093D70080EA8093D80089B5806189BD9C
:1010B00089B5826089BD09B400FEFDCF61E070E0B2
:1010C00080E090E00E945F038091D8008F7C806177
:1010D0008093D8008091E000807F8093E000809131
:1010E000E1008E7E8093E1008DE08093E200559ACE
:1010F000209A10910B016AE070E080E090E00E947D
:101100005F031123B1F38FEF9FEF90935B01809307
:101110005A011FB7F89480913F01811124C0E9E77B
:10112000F1E08491E8E9F1E09491E82FF0E0EE0F2E
:10113000FF1FE65AFE4FA591B491EC91E92321F4EB
:1011400061E081E10E94B20281E10E94FE008CB563
:1011500080618CBD8CB580648CBD8FE00E94FE00E8
:1011600080E10E94FE0080913F018F5F80933F01EC
:101170001FBF8091A1019091A2018F3F980709F4B0
:101180008FC02091A3013091A4012F3F320709F4B1
:1011900087C08217930731F00E94FE008091A3015F
:1011A0000E94FE008091A1019091A2012091A301D3
:1011B0003091A4018217930719F060E00E94B202F7
:1011C00081E00E94230365E070E080E090E00E94EF
:1011D0005F036FE584E00E94900485E590E0A0E065
:1011E000B0E08093B7019093B801A093B901B09398
:1011F000BA0167E086E00E9490048DE10E945204EB
:10120000182F0E9484048DE10E94520491E018136B
:1012100090E09093B101882341F0181302C00E941E
:10122000840460E08DE10E9490041092B30160E0BC
:101230008CE10E9490041092B5016FE381E00E945E
:10124000900463E082E00E94900480E28093AA010F
:1012500011E16091AA01812F0E9490041F5F173154
:10126000C1F763E083E00E94900485E08093B401BD
:101270006CE40E94900460E787E00E94900482EE94
:101280000E94450481EE0E9445046CE080E00E94CB
:10129000900480E00E9452048093B0010E94A30455
:1012A0004091B40150E063E171E08BEA91E00E946B
:1012B000180A81E08093B201E0E4F1E0849140916A
:1012C000B40163E171E00E94640482E00E94520470
:1012D00006E411E0F801949161E070E001C0660F4E
:1012E0009A95EAF7682B82E00E9490040E94A3047A
:1012F0006091B00161606093B00180E00E94900451
:1013000060E787E00E9490048091A1019091A20182
:101310002091A3013091A4018217930719F061E095
:101320000E94B2028091B201882309F43FC040912B
:10133000B4016BEA71E08AE00E94640430E2B32EEB
:10134000CE0101967C0140E0C42E40E0D42E8FEF08
:101350000E9445048091A90190E09595879587703A
:10136000863008F058C0F7012B2D11922A95E9F725
:101370008091B50110E000E2811107C01091AA012F
:10138000012F113208F000E2101B0E941D0481E6BB
:101390000E9416048093A90147010150D8F08FEFF5
:1013A0000E941604F40181934F01F7CF82E00E945E
:1013B0005204F801049121E030E001C0220F0A95A7
:1013C000EAF72095622F682382E00E949004109231
:1013D000B201B4CF115020F08FEF0E941604FACF63
:1013E0000E94370360E487E00E949004F7010190B7
:1013F0000020E9F73197AF014E195F09B7018EE47C
:1014000091E00E94910342E050E06BE271E08EE4D3
:1014100091E00E949103C114D10409F498CF0E9475
:10142000000095CFEE0FFF1F0590F491E02D099479
:10143000FB01DC0102C001900D9241505040D8F7F1
:061440000895F894FFCFAF
:10144600FFFFFFFF00E100000000000000C18081F7
:1014560000000030303030310000000000310291D1
:0E14660003520247029802560274020D0A0059
:00000001FF
